{
  "_format": "hh-sol-artifact-1",
  "contractName": "WavePortal",
  "sourceName": "contracts/WavePortal.sol",
  "abi": [
    {
      "inputs": [],
      "stateMutability": "payable",
      "type": "constructor"
    },
    {
      "anonymous": false,
      "inputs": [
        {
          "indexed": true,
          "internalType": "address",
          "name": "from",
          "type": "address"
        },
        {
          "indexed": false,
          "internalType": "uint256",
          "name": "timestamp",
          "type": "uint256"
        },
        {
          "indexed": false,
          "internalType": "string",
          "name": "message",
          "type": "string"
        }
      ],
      "name": "NewWave",
      "type": "event"
    },
    {
      "inputs": [],
      "name": "getAllWaves",
      "outputs": [
        {
          "components": [
            {
              "internalType": "address",
              "name": "waver",
              "type": "address"
            },
            {
              "internalType": "string",
              "name": "message",
              "type": "string"
            },
            {
              "internalType": "uint256",
              "name": "timestamp",
              "type": "uint256"
            }
          ],
          "internalType": "struct WavePortal.Wave[]",
          "name": "",
          "type": "tuple[]"
        }
      ],
      "stateMutability": "view",
      "type": "function"
    },
    {
      "inputs": [],
      "name": "getTotalWaves",
      "outputs": [
        {
          "internalType": "uint256",
          "name": "",
          "type": "uint256"
        }
      ],
      "stateMutability": "view",
      "type": "function"
    },
    {
      "inputs": [
        {
          "internalType": "address",
          "name": "",
          "type": "address"
        }
      ],
      "name": "lastWavedAt",
      "outputs": [
        {
          "internalType": "uint256",
          "name": "",
          "type": "uint256"
        }
      ],
      "stateMutability": "view",
      "type": "function"
    },
    {
      "inputs": [],
      "name": "userWaveCount",
      "outputs": [
        {
          "internalType": "uint256",
          "name": "",
          "type": "uint256"
        }
      ],
      "stateMutability": "view",
      "type": "function"
    },
    {
      "inputs": [
        {
          "internalType": "string",
          "name": "_message",
          "type": "string"
        }
      ],
      "name": "wave",
      "outputs": [],
      "stateMutability": "nonpayable",
      "type": "function"
    }
  ],
  "bytecode": "0x60806040526200003360405180606001604052806025815260200162001542602591396200003960201b620007d01760201c565b620001cd565b620000d98160405160240162000050919062000146565b6040516020818303038152906040527f41304fac000000000000000000000000000000000000000000000000000000007bffffffffffffffffffffffffffffffffffffffffffffffffffffffff19166020820180517bffffffffffffffffffffffffffffffffffffffffffffffffffffffff8381831617835250505050620000dc60201b60201c565b50565b60008151905060006a636f6e736f6c652e6c6f679050602083016000808483855afa5050505050565b600062000112826200016a565b6200011e818562000175565b93506200013081856020860162000186565b6200013b81620001bc565b840191505092915050565b6000602082019050818103600083015262000162818462000105565b905092915050565b600081519050919050565b600082825260208201905092915050565b60005b83811015620001a657808201518184015260208101905062000189565b83811115620001b6576000848401525b50505050565b6000601f19601f8301169050919050565b61136580620001dd6000396000f3fe608060405234801561001057600080fd5b50600436106100575760003560e01c8063449d46c01461005c5780639a2cdc0814610078578063a42a466314610096578063bd43a908146100c6578063bdbe8bbd146100e4575b600080fd5b61007660048036038101906100719190610bb2565b610102565b005b610080610556565b60405161008d9190610ff7565b60405180910390f35b6100b060048036038101906100ab9190610b89565b6105a1565b6040516100bd9190610ff7565b60405180910390f35b6100ce6105b9565b6040516100db9190610eb5565b60405180910390f35b6100ec61070a565b6040516100f99190610ff7565b60405180910390f35b42601e600360003373ffffffffffffffffffffffffffffffffffffffff1673ffffffffffffffffffffffffffffffffffffffff1681526020019081526020016000205461014f9190611114565b1061018f576040517f08c379a000000000000000000000000000000000000000000000000000000000815260040161018690610fd7565b60405180910390fd5b42600360003373ffffffffffffffffffffffffffffffffffffffff1673ffffffffffffffffffffffffffffffffffffffff1681526020019081526020016000208190555060016000808282546101e59190611114565b9250508190555061022b6040518060400160405280600d81526020017f257320686173207761766564210000000000000000000000000000000000000081525033610869565b6001600260003373ffffffffffffffffffffffffffffffffffffffff1673ffffffffffffffffffffffffffffffffffffffff168152602001908152602001600020600082825461027b9190611114565b92505081905550600460405180606001604052803373ffffffffffffffffffffffffffffffffffffffff16815260200183815260200142815250908060018154018082558091505060019003906000526020600020906003020160009091909190915060008201518160000160006101000a81548173ffffffffffffffffffffffffffffffffffffffff021916908373ffffffffffffffffffffffffffffffffffffffff1602179055506020820151816001019080519060200190610341929190610a69565b506040820151816002015550506000606460015442446103619190611114565b61036b9190611114565b610375919061121a565b90506103b66040518060400160405280601681526020017f52616e646f6d20232067656e6572617465643a2025730000000000000000000081525082610905565b806001819055506032811015610502576104056040518060400160405280600781526020017f257320776f6e210000000000000000000000000000000000000000000000000081525033610869565b6000655af3107a4000905047811115610453576040517f08c379a000000000000000000000000000000000000000000000000000000000815260040161044a90610f97565b60405180910390fd5b60003373ffffffffffffffffffffffffffffffffffffffff168260405161047990610ea0565b60006040518083038185875af1925050503d80600081146104b6576040519150601f19603f3d011682016040523d82523d6000602084013e6104bb565b606091505b50509050806104ff576040517f08c379a00000000000000000000000000000000000000000000000000000000081526004016104f690610fb7565b60405180910390fd5b50505b3373ffffffffffffffffffffffffffffffffffffffff167f5f7e16dc676677766a70e9c5628aa6c54ddb8b6e5188e2ae1e1f17f1ffbea716428460405161054a929190611012565b60405180910390a25050565b60006105996040518060400160405280601b81526020017f576520686176652068616420257320746f74616c207761766573210000000000815250600054610905565b600054905090565b60036020528060005260406000206000915090505481565b60606004805480602002602001604051908101604052809291908181526020016000905b8282101561070157838290600052602060002090600302016040518060600160405290816000820160009054906101000a900473ffffffffffffffffffffffffffffffffffffffff1673ffffffffffffffffffffffffffffffffffffffff1673ffffffffffffffffffffffffffffffffffffffff168152602001600182018054610666906111e8565b80601f0160208091040260200160405190810160405280929190818152602001828054610692906111e8565b80156106df5780601f106106b4576101008083540402835291602001916106df565b820191906000526020600020905b8154815290600101906020018083116106c257829003601f168201915b50505050508152602001600282015481525050815260200190600101906105dd565b50505050905090565b600061078b6040518060400160405280601a81526020017f55736572202573206861732077617665642025732074696d657300000000000081525033600260003373ffffffffffffffffffffffffffffffffffffffff1673ffffffffffffffffffffffffffffffffffffffff168152602001908152602001600020546109a1565b600260003373ffffffffffffffffffffffffffffffffffffffff1673ffffffffffffffffffffffffffffffffffffffff16815260200190815260200160002054905090565b610866816040516024016107e49190610ed7565b6040516020818303038152906040527f41304fac000000000000000000000000000000000000000000000000000000007bffffffffffffffffffffffffffffffffffffffffffffffffffffffff19166020820180517bffffffffffffffffffffffffffffffffffffffffffffffffffffffff8381831617835250505050610a40565b50565b610901828260405160240161087f929190610ef9565b6040516020818303038152906040527f319af333000000000000000000000000000000000000000000000000000000007bffffffffffffffffffffffffffffffffffffffffffffffffffffffff19166020820180517bffffffffffffffffffffffffffffffffffffffffffffffffffffffff8381831617835250505050610a40565b5050565b61099d828260405160240161091b929190610f67565b6040516020818303038152906040527f9710a9d0000000000000000000000000000000000000000000000000000000007bffffffffffffffffffffffffffffffffffffffffffffffffffffffff19166020820180517bffffffffffffffffffffffffffffffffffffffffffffffffffffffff8381831617835250505050610a40565b5050565b610a3b8383836040516024016109b993929190610f29565b6040516020818303038152906040527f07c81217000000000000000000000000000000000000000000000000000000007bffffffffffffffffffffffffffffffffffffffffffffffffffffffff19166020820180517bffffffffffffffffffffffffffffffffffffffffffffffffffffffff8381831617835250505050610a40565b505050565b60008151905060006a636f6e736f6c652e6c6f679050602083016000808483855afa5050505050565b828054610a75906111e8565b90600052602060002090601f016020900481019282610a975760008555610ade565b82601f10610ab057805160ff1916838001178555610ade565b82800160010185558215610ade579182015b82811115610add578251825591602001919060010190610ac2565b5b509050610aeb9190610aef565b5090565b5b80821115610b08576000816000905550600101610af0565b5090565b6000610b1f610b1a84611073565b611042565b905082815260208101848484011115610b3757600080fd5b610b428482856111a6565b509392505050565b600081359050610b5981611318565b92915050565b600082601f830112610b7057600080fd5b8135610b80848260208601610b0c565b91505092915050565b600060208284031215610b9b57600080fd5b6000610ba984828501610b4a565b91505092915050565b600060208284031215610bc457600080fd5b600082013567ffffffffffffffff811115610bde57600080fd5b610bea84828501610b5f565b91505092915050565b6000610bff8383610e32565b905092915050565b610c108161116a565b82525050565b610c1f8161116a565b82525050565b6000610c30826110b3565b610c3a81856110d6565b935083602082028501610c4c856110a3565b8060005b85811015610c885784840389528151610c698582610bf3565b9450610c74836110c9565b925060208a01995050600181019050610c50565b50829750879550505050505092915050565b6000610ca5826110be565b610caf81856110f2565b9350610cbf8185602086016111b5565b610cc881611307565b840191505092915050565b6000610cde826110be565b610ce88185611103565b9350610cf88185602086016111b5565b610d0181611307565b840191505092915050565b6000610d19603483611103565b91507f547279696e6720746f207769746864726177206d6f7265206d6f6e657920746860008301527f616e2074686520636f6e7472616374206861732e0000000000000000000000006020830152604082019050919050565b6000610d7f602783611103565b91507f4661696c656420746f207769746864726177206d6f6e65792066726f6d20636f60008301527f6e74726163742e000000000000000000000000000000000000000000000000006020830152604082019050919050565b6000610de56000836110e7565b9150600082019050919050565b6000610dff600883611103565b91507f576169742031356d0000000000000000000000000000000000000000000000006000830152602082019050919050565b6000606083016000830151610e4a6000860182610c07565b5060208301518482036020860152610e628282610c9a565b9150506040830151610e776040860182610e82565b508091505092915050565b610e8b8161119c565b82525050565b610e9a8161119c565b82525050565b6000610eab82610dd8565b9150819050919050565b60006020820190508181036000830152610ecf8184610c25565b905092915050565b60006020820190508181036000830152610ef18184610cd3565b905092915050565b60006040820190508181036000830152610f138185610cd3565b9050610f226020830184610c16565b9392505050565b60006060820190508181036000830152610f438186610cd3565b9050610f526020830185610c16565b610f5f6040830184610e91565b949350505050565b60006040820190508181036000830152610f818185610cd3565b9050610f906020830184610e91565b9392505050565b60006020820190508181036000830152610fb081610d0c565b9050919050565b60006020820190508181036000830152610fd081610d72565b9050919050565b60006020820190508181036000830152610ff081610df2565b9050919050565b600060208201905061100c6000830184610e91565b92915050565b60006040820190506110276000830185610e91565b81810360208301526110398184610cd3565b90509392505050565b6000604051905081810181811067ffffffffffffffff82111715611069576110686112d8565b5b8060405250919050565b600067ffffffffffffffff82111561108e5761108d6112d8565b5b601f19601f8301169050602081019050919050565b6000819050602082019050919050565b600081519050919050565b600081519050919050565b6000602082019050919050565b600082825260208201905092915050565b600081905092915050565b600082825260208201905092915050565b600082825260208201905092915050565b600061111f8261119c565b915061112a8361119c565b9250827fffffffffffffffffffffffffffffffffffffffffffffffffffffffffffffffff0382111561115f5761115e61124b565b5b828201905092915050565b60006111758261117c565b9050919050565b600073ffffffffffffffffffffffffffffffffffffffff82169050919050565b6000819050919050565b82818337600083830152505050565b60005b838110156111d35780820151818401526020810190506111b8565b838111156111e2576000848401525b50505050565b6000600282049050600182168061120057607f821691505b60208210811415611214576112136112a9565b5b50919050565b60006112258261119c565b91506112308361119c565b9250826112405761123f61127a565b5b828206905092915050565b7f4e487b7100000000000000000000000000000000000000000000000000000000600052601160045260246000fd5b7f4e487b7100000000000000000000000000000000000000000000000000000000600052601260045260246000fd5b7f4e487b7100000000000000000000000000000000000000000000000000000000600052602260045260246000fd5b7f4e487b7100000000000000000000000000000000000000000000000000000000600052604160045260246000fd5b6000601f19601f8301169050919050565b6113218161116a565b811461132c57600080fd5b5056fea2646970667358221220e784b4570f7bd41d102568ce20af824d5b978ff557fd49f6468f0920f002112164736f6c63430008000033596f20796f2c204920616d206120636f6e747261637420616e64204920616d20736d617274",
  "linkReferences": {},
  "deployedLinkReferences": {}
}